{
  "_format": "hh-sol-artifact-1",
  "contractName": "CrowdFunding",
  "sourceName": "contracts/CrowdFunding.sol",
  "abi": [
    {
      "inputs": [
        {
          "internalType": "uint256",
          "name": "",
          "type": "uint256"
        }
      ],
      "name": "campaigns",
      "outputs": [
        {
          "internalType": "address",
          "name": "owner",
          "type": "address"
        },
        {
          "internalType": "string",
          "name": "title",
          "type": "string"
        },
        {
          "internalType": "string",
          "name": "description",
          "type": "string"
        },
        {
          "internalType": "uint256",
          "name": "target",
          "type": "uint256"
        },
        {
          "internalType": "uint256",
          "name": "deadline",
          "type": "uint256"
        },
        {
          "internalType": "uint256",
          "name": "amountCollected",
          "type": "uint256"
        },
        {
          "internalType": "string",
          "name": "image",
          "type": "string"
        }
      ],
      "stateMutability": "view",
      "type": "function"
    },
    {
      "inputs": [
        {
          "internalType": "address",
          "name": "_owner",
          "type": "address"
        },
        {
          "internalType": "string",
          "name": "_title",
          "type": "string"
        },
        {
          "internalType": "string",
          "name": "_description",
          "type": "string"
        },
        {
          "internalType": "uint256",
          "name": "_target",
          "type": "uint256"
        },
        {
          "internalType": "uint256",
          "name": "_deadline",
          "type": "uint256"
        },
        {
          "internalType": "string",
          "name": "_image",
          "type": "string"
        }
      ],
      "name": "createCampaign",
      "outputs": [
        {
          "internalType": "uint256",
          "name": "",
          "type": "uint256"
        }
      ],
      "stateMutability": "nonpayable",
      "type": "function"
    },
    {
      "inputs": [
        {
          "internalType": "uint256",
          "name": "_campaignId",
          "type": "uint256"
        }
      ],
      "name": "donateToCampaign",
      "outputs": [
        {
          "internalType": "string",
          "name": "",
          "type": "string"
        }
      ],
      "stateMutability": "payable",
      "type": "function"
    },
    {
      "inputs": [],
      "name": "getCampaigns",
      "outputs": [
        {
          "components": [
            {
              "internalType": "address",
              "name": "owner",
              "type": "address"
            },
            {
              "internalType": "string",
              "name": "title",
              "type": "string"
            },
            {
              "internalType": "string",
              "name": "description",
              "type": "string"
            },
            {
              "internalType": "uint256",
              "name": "target",
              "type": "uint256"
            },
            {
              "internalType": "uint256",
              "name": "deadline",
              "type": "uint256"
            },
            {
              "internalType": "uint256",
              "name": "amountCollected",
              "type": "uint256"
            },
            {
              "internalType": "string",
              "name": "image",
              "type": "string"
            },
            {
              "internalType": "address[]",
              "name": "donors",
              "type": "address[]"
            },
            {
              "internalType": "uint256[]",
              "name": "donations",
              "type": "uint256[]"
            }
          ],
          "internalType": "struct CrowdFunding.Campaign[]",
          "name": "",
          "type": "tuple[]"
        }
      ],
      "stateMutability": "view",
      "type": "function"
    },
    {
      "inputs": [
        {
          "internalType": "uint256",
          "name": "_campaignId",
          "type": "uint256"
        }
      ],
      "name": "getDonors",
      "outputs": [
        {
          "internalType": "address[]",
          "name": "",
          "type": "address[]"
        },
        {
          "internalType": "uint256[]",
          "name": "",
          "type": "uint256[]"
        }
      ],
      "stateMutability": "view",
      "type": "function"
    },
    {
      "inputs": [],
      "name": "numberOfCampaigns",
      "outputs": [
        {
          "internalType": "uint256",
          "name": "",
          "type": "uint256"
        }
      ],
      "stateMutability": "view",
      "type": "function"
    }
  ],
  "bytecode": "0x6080604052600060015534801561001557600080fd5b506112cc806100256000396000f3fe6080604052600436106100555760003560e01c806307ca140d1461005a578063141961bc1461008357806329516511146100b657806342a4fda8146100e45780639943e3a114610104578063a6b0363314610124575b600080fd5b34801561006657600080fd5b5061007060015481565b6040519081526020015b60405180910390f35b34801561008f57600080fd5b506100a361009e366004610c98565b610146565b60405161007a9796959493929190610cf7565b3480156100c257600080fd5b506100d66100d1366004610c98565b610323565b60405161007a929190610d61565b6100f76100f2366004610c98565b610441565b60405161007a9190610de5565b34801561011057600080fd5b5061007061011f366004610ea2565b61063d565b34801561013057600080fd5b50610139610847565b60405161007a9190610fd1565b600060208190529081526040902080546001820180546001600160a01b039092169291610172906110e0565b80601f016020809104026020016040519081016040528092919081815260200182805461019e906110e0565b80156101eb5780601f106101c0576101008083540402835291602001916101eb565b820191906000526020600020905b8154815290600101906020018083116101ce57829003601f168201915b505050505090806002018054610200906110e0565b80601f016020809104026020016040519081016040528092919081815260200182805461022c906110e0565b80156102795780601f1061024e57610100808354040283529160200191610279565b820191906000526020600020905b81548152906001019060200180831161025c57829003601f168201915b5050505050908060030154908060040154908060050154908060060180546102a0906110e0565b80601f01602080910402602001604051908101604052809291908181526020018280546102cc906110e0565b80156103195780601f106102ee57610100808354040283529160200191610319565b820191906000526020600020905b8154815290600101906020018083116102fc57829003601f168201915b5050505050905087565b60608060015483106103765760405162461bcd60e51b815260206004820152601760248201527610d85b5c185a59db88191bd95cc81b9bdd08195e1a5cdd604a1b60448201526064015b60405180910390fd5b6000838152602081815260409182902060078101805484518185028101850190955280855290936008909201928491908301828280156103df57602002820191906000526020600020905b81546001600160a01b031681526001909101906020018083116103c1575b505050505091508080548060200260200160405190810160405280929190818152602001828054801561043157602002820191906000526020600020905b81548152602001906001019080831161041d575b5050505050905091509150915091565b600154606090349083106104915760405162461bcd60e51b815260206004820152601760248201527610d85b5c185a59db88191bd95cc81b9bdd08195e1a5cdd604a1b604482015260640161036d565b60008381526020819052604090206004015442106104f15760405162461bcd60e51b815260206004820152601c60248201527f43616d706169676e20646561646c696e65206861732070617373656400000000604482015260640161036d565b6000838152602081905260408082205490516001600160a01b039091169083908381818185875af1925050503d8060008114610549576040519150601f19603f3d011682016040523d82523d6000602084013e61054e565b606091505b505090508061059f5760405162461bcd60e51b815260206004820181905260248201527f46756e64696e67204661696c65642c20506c656173652054727920416761696e604482015260640161036d565b600084815260208190526040812060050180548492906105c090849061112a565b909155505050600092835260208381526040808520600781018054600181810183559188528488200180546001600160a01b031916331790556008909101805491820181558652948290209094019190915582518084019093526013835272111bdb985d1a5bdb8814dd58d8d95cdcd99d5b606a1b908301525090565b600042831161069c5760405162461bcd60e51b815260206004820152602560248201527f446561646c696e65206d75737420626520612074696d6520696e207468652066604482015264757475726560d81b606482015260840161036d565b604051806101200160405280886001600160a01b0316815260200187815260200186815260200185815260200184815260200160008152602001838152602001600067ffffffffffffffff8111156106f6576106f6610dff565b60405190808252806020026020018201604052801561071f578160200160208202803683370190505b5081526020016000604051908082528060200260200182016040528015610750578160200160208202803683370190505b50905260018054600090815260208181526040909120835181546001600160a01b0319166001600160a01b039091161781559083015190918201906107959082611194565b50604082015160028201906107aa9082611194565b50606082015160038201556080820151600482015560a0820151600582015560c082015160068201906107dd9082611194565b5060e082015180516107f9916007840191602090910190610be3565b506101008201518051610816916008840191602090910190610c48565b5050600180549150600061082983611254565b91905055506001805461083c919061126d565b979650505050505050565b6060600060015467ffffffffffffffff81111561086657610866610dff565b6040519080825280602002602001820160405280156108ef57816020015b6108dc60405180610120016040528060006001600160a01b0316815260200160608152602001606081526020016000815260200160008152602001600081526020016060815260200160608152602001606081525090565b8152602001906001900390816108845790505b50905060005b600154811015610bdd57600081815260208181526040918290208251610120810190935280546001600160a01b03168352600181018054919284019161093a906110e0565b80601f0160208091040260200160405190810160405280929190818152602001828054610966906110e0565b80156109b35780601f10610988576101008083540402835291602001916109b3565b820191906000526020600020905b81548152906001019060200180831161099657829003601f168201915b505050505081526020016002820180546109cc906110e0565b80601f01602080910402602001604051908101604052809291908181526020018280546109f8906110e0565b8015610a455780601f10610a1a57610100808354040283529160200191610a45565b820191906000526020600020905b815481529060010190602001808311610a2857829003601f168201915b50505050508152602001600382015481526020016004820154815260200160058201548152602001600682018054610a7c906110e0565b80601f0160208091040260200160405190810160405280929190818152602001828054610aa8906110e0565b8015610af55780601f10610aca57610100808354040283529160200191610af5565b820191906000526020600020905b815481529060010190602001808311610ad857829003601f168201915b5050505050815260200160078201805480602002602001604051908101604052809291908181526020018280548015610b5757602002820191906000526020600020905b81546001600160a01b03168152600190910190602001808311610b39575b5050505050815260200160088201805480602002602001604051908101604052809291908181526020018280548015610baf57602002820191906000526020600020905b815481526020019060010190808311610b9b575b505050505081525050828281518110610bca57610bca611280565b60209081029190910101526001016108f5565b50919050565b828054828255906000526020600020908101928215610c38579160200282015b82811115610c3857825182546001600160a01b0319166001600160a01b03909116178255602090920191600190910190610c03565b50610c44929150610c83565b5090565b828054828255906000526020600020908101928215610c38579160200282015b82811115610c38578251825591602001919060010190610c68565b5b80821115610c445760008155600101610c84565b600060208284031215610caa57600080fd5b5035919050565b6000815180845260005b81811015610cd757602081850181015186830182015201610cbb565b506000602082860101526020601f19601f83011685010191505092915050565b6001600160a01b038816815260e060208201819052600090610d1b90830189610cb1565b8281036040840152610d2d8189610cb1565b90508660608401528560808401528460a084015282810360c0840152610d538185610cb1565b9a9950505050505050505050565b604080825283519082018190526000906020906060840190828701845b82811015610da35781516001600160a01b031684529284019290840190600101610d7e565b5050508381038285015284518082528583019183019060005b81811015610dd857835183529284019291840191600101610dbc565b5090979650505050505050565b602081526000610df86020830184610cb1565b9392505050565b634e487b7160e01b600052604160045260246000fd5b600082601f830112610e2657600080fd5b813567ffffffffffffffff80821115610e4157610e41610dff565b604051601f8301601f19908116603f01168101908282118183101715610e6957610e69610dff565b81604052838152866020858801011115610e8257600080fd5b836020870160208301376000602085830101528094505050505092915050565b60008060008060008060c08789031215610ebb57600080fd5b86356001600160a01b0381168114610ed257600080fd5b9550602087013567ffffffffffffffff80821115610eef57600080fd5b610efb8a838b01610e15565b96506040890135915080821115610f1157600080fd5b610f1d8a838b01610e15565b9550606089013594506080890135935060a0890135915080821115610f4157600080fd5b50610f4e89828a01610e15565b9150509295509295509295565b60008151808452602080850194506020840160005b83811015610f955781516001600160a01b031687529582019590820190600101610f70565b509495945050505050565b60008151808452602080850194506020840160005b83811015610f9557815187529582019590820190600101610fb5565b600060208083018184528085518083526040925060408601915060408160051b87010184880160005b838110156110d257888303603f19018552815180516001600160a01b0316845261012088820151818a87015261103282870182610cb1565b915050878201518582038987015261104a8282610cb1565b606084810151908801526080808501519088015260a0808501519088015260c080850151888303828a015291935091506110848382610cb1565b9250505060e0808301518683038288015261109f8382610f5b565b9250505061010080830151925085820381870152506110be8183610fa0565b968901969450505090860190600101610ffa565b509098975050505050505050565b600181811c908216806110f457607f821691505b602082108103610bdd57634e487b7160e01b600052602260045260246000fd5b634e487b7160e01b600052601160045260246000fd5b8082018082111561113d5761113d611114565b92915050565b601f82111561118f576000816000526020600020601f850160051c8101602086101561116c5750805b601f850160051c820191505b8181101561118b57828155600101611178565b5050505b505050565b815167ffffffffffffffff8111156111ae576111ae610dff565b6111c2816111bc84546110e0565b84611143565b602080601f8311600181146111f757600084156111df5750858301515b600019600386901b1c1916600185901b17855561118b565b600085815260208120601f198616915b8281101561122657888601518255948401946001909101908401611207565b50858210156112445787850151600019600388901b60f8161c191681555b5050505050600190811b01905550565b60006001820161126657611266611114565b5060010190565b8181038181111561113d5761113d611114565b634e487b7160e01b600052603260045260246000fdfea2646970667358221220ee129d6aed026d2fc06f114ebdac9a9d190a5bc60c0bdd190366f4215c331c3464736f6c63430008170033",
  "linkReferences": {},
  "deployedLinkReferences": {}
}